:100000000C942A000C9434000C9434000C943400AA
:100010000C9434000C9434000C9434000C94340090
:100020000C9434000C9434000C9434000C94340080
:100030000C9434000C9434000C9434000C94340070
:100040000C9434000C9434000C9434000C94340060
:100050000C94340011241FBECFE5D8E0DEBFCDBF25
:100060000E94A9000C94B8000C94000087B38F6123
:1000700087BB81B38C7F81BB82B3836082BB0895D1
:1000800088B38B7F88BB88B3816188BB2FEF89E6FB
:1000900098E1215080409040E1F700C0000088B313
:1000A0008E7F88BB88B3826088BB2FEF83EC99E09A
:1000B000215080409040E1F700C0000088B38D7E61
:1000C00088BB88B38C6088BB2FEF89E698E121500C
:1000D00080409040E1F700C0000088B3877F88BB74
:1000E00088B3806188BB089588B38C7F88BB88B350
:1000F000846088BB88B38F7E88BB88B3886088BBE8
:100100002FEF89E698E1215080409040E1F700C050
:10011000000088B3877F88BB88B3806188BB08955F
:1001200088B3807E88BB20E030E00FC098B38FE1B9
:10013000892788BB4FEF85EA9EE041508040904080
:10014000E1F700C000002F5F3F4F2A30310574F304
:1001500008950E943600819903C00E949000FBCF51
:10016000809903C00E947400F6CF0E944000F3CF34
:04017000F894FFCF31
:00000001FF
